{
  "_format": "hh-sol-artifact-1",
  "contractName": "Raffle",
  "sourceName": "contracts/Raffle.sol",
  "abi": [
    {
      "inputs": [
        {
          "internalType": "uint256",
          "name": "entranceFee",
          "type": "uint256"
        },
        {
          "internalType": "address",
          "name": "vrfCoordinatorV2",
          "type": "address"
        },
        {
          "internalType": "bytes32",
          "name": "gasLane",
          "type": "bytes32"
        },
        {
          "internalType": "uint64",
          "name": "subscriptionId",
          "type": "uint64"
        },
        {
          "internalType": "uint32",
          "name": "callBackGasLimit",
          "type": "uint32"
        },
        {
          "internalType": "uint256",
          "name": "interval",
          "type": "uint256"
        }
      ],
      "stateMutability": "nonpayable",
      "type": "constructor"
    },
    {
      "inputs": [
        {
          "internalType": "address",
          "name": "have",
          "type": "address"
        },
        {
          "internalType": "address",
          "name": "want",
          "type": "address"
        }
      ],
      "name": "OnlyCoordinatorCanFulfill",
      "type": "error"
    },
    {
      "inputs": [],
      "name": "Raffle_NotOpen",
      "type": "error"
    },
    {
      "inputs": [],
      "name": "Raffle__NotEnoughEthEntrance",
      "type": "error"
    },
    {
      "inputs": [],
      "name": "Raffle__TransferFailed",
      "type": "error"
    },
    {
      "inputs": [
        {
          "internalType": "uint256",
          "name": "currentBalance",
          "type": "uint256"
        },
        {
          "internalType": "uint256",
          "name": "totalPlayers",
          "type": "uint256"
        },
        {
          "internalType": "uint256",
          "name": "stateRaffle",
          "type": "uint256"
        }
      ],
      "name": "Raffle__UpKeepNotNeeded",
      "type": "error"
    },
    {
      "anonymous": false,
      "inputs": [
        {
          "indexed": true,
          "internalType": "address",
          "name": "player",
          "type": "address"
        }
      ],
      "name": "RaffleEnter",
      "type": "event"
    },
    {
      "anonymous": false,
      "inputs": [
        {
          "indexed": true,
          "internalType": "uint256",
          "name": "requestId",
          "type": "uint256"
        }
      ],
      "name": "RequestedRaffleWinner",
      "type": "event"
    },
    {
      "anonymous": false,
      "inputs": [
        {
          "indexed": true,
          "internalType": "address",
          "name": "winner",
          "type": "address"
        }
      ],
      "name": "WinnerPicked",
      "type": "event"
    },
    {
      "inputs": [
        {
          "internalType": "bytes",
          "name": "",
          "type": "bytes"
        }
      ],
      "name": "checkUpkeep",
      "outputs": [
        {
          "internalType": "bool",
          "name": "upKeepNeeded",
          "type": "bool"
        },
        {
          "internalType": "bytes",
          "name": "",
          "type": "bytes"
        }
      ],
      "stateMutability": "nonpayable",
      "type": "function"
    },
    {
      "inputs": [],
      "name": "enterRaffle",
      "outputs": [],
      "stateMutability": "payable",
      "type": "function"
    },
    {
      "inputs": [],
      "name": "getEntranceFee",
      "outputs": [
        {
          "internalType": "uint256",
          "name": "",
          "type": "uint256"
        }
      ],
      "stateMutability": "view",
      "type": "function"
    },
    {
      "inputs": [],
      "name": "getNumberOfPlayers",
      "outputs": [
        {
          "internalType": "uint256",
          "name": "",
          "type": "uint256"
        }
      ],
      "stateMutability": "view",
      "type": "function"
    },
    {
      "inputs": [],
      "name": "getNumberOfWords",
      "outputs": [
        {
          "internalType": "uint256",
          "name": "",
          "type": "uint256"
        }
      ],
      "stateMutability": "pure",
      "type": "function"
    },
    {
      "inputs": [
        {
          "internalType": "uint256",
          "name": "index",
          "type": "uint256"
        }
      ],
      "name": "getPlayer",
      "outputs": [
        {
          "internalType": "address",
          "name": "",
          "type": "address"
        }
      ],
      "stateMutability": "view",
      "type": "function"
    },
    {
      "inputs": [],
      "name": "getRaffleState",
      "outputs": [
        {
          "internalType": "enum Raffle.RaffleState",
          "name": "",
          "type": "uint8"
        }
      ],
      "stateMutability": "view",
      "type": "function"
    },
    {
      "inputs": [],
      "name": "getRecentWinner",
      "outputs": [
        {
          "internalType": "address",
          "name": "",
          "type": "address"
        }
      ],
      "stateMutability": "view",
      "type": "function"
    },
    {
      "inputs": [],
      "name": "getRequestConfirmations",
      "outputs": [
        {
          "internalType": "uint256",
          "name": "",
          "type": "uint256"
        }
      ],
      "stateMutability": "pure",
      "type": "function"
    },
    {
      "inputs": [],
      "name": "latestTimeStamp",
      "outputs": [
        {
          "internalType": "uint256",
          "name": "",
          "type": "uint256"
        }
      ],
      "stateMutability": "view",
      "type": "function"
    },
    {
      "inputs": [
        {
          "internalType": "bytes",
          "name": "",
          "type": "bytes"
        }
      ],
      "name": "performUpkeep",
      "outputs": [],
      "stateMutability": "nonpayable",
      "type": "function"
    },
    {
      "inputs": [
        {
          "internalType": "uint256",
          "name": "requestId",
          "type": "uint256"
        },
        {
          "internalType": "uint256[]",
          "name": "randomWords",
          "type": "uint256[]"
        }
      ],
      "name": "rawFulfillRandomWords",
      "outputs": [],
      "stateMutability": "nonpayable",
      "type": "function"
    }
  ],
  "bytecode": "0x6101606040523480156200001257600080fd5b50604051620017c4380380620017c48339818101604052810190620000389190620001ad565b848073ffffffffffffffffffffffffffffffffffffffff1660808173ffffffffffffffffffffffffffffffffffffffff1660601b81525050508560a081815250508473ffffffffffffffffffffffffffffffffffffffff1660c08173ffffffffffffffffffffffffffffffffffffffff1660601b815250508360e081815250508267ffffffffffffffff166101008167ffffffffffffffff1660c01b815250508163ffffffff166101208163ffffffff1660e01b815250506000600160146101000a81548160ff02191690836001811115620001195762000118620002b5565b5b0217905550426002819055508061014081815250505050505050506200036b565b6000815190506200014b81620002e9565b92915050565b600081519050620001628162000303565b92915050565b60008151905062000179816200031d565b92915050565b600081519050620001908162000337565b92915050565b600081519050620001a78162000351565b92915050565b60008060008060008060c08789031215620001cd57620001cc620002e4565b5b6000620001dd89828a0162000168565b9650506020620001f089828a016200013a565b95505060406200020389828a0162000151565b94505060606200021689828a0162000196565b93505060806200022989828a016200017f565b92505060a06200023c89828a0162000168565b9150509295509295509295565b6000620002568262000267565b9050919050565b6000819050919050565b600073ffffffffffffffffffffffffffffffffffffffff82169050919050565b6000819050919050565b600063ffffffff82169050919050565b600067ffffffffffffffff82169050919050565b7f4e487b7100000000000000000000000000000000000000000000000000000000600052602160045260246000fd5b600080fd5b620002f48162000249565b81146200030057600080fd5b50565b6200030e816200025d565b81146200031a57600080fd5b50565b620003288162000287565b81146200033457600080fd5b50565b620003428162000291565b81146200034e57600080fd5b50565b6200035c81620002a1565b81146200036857600080fd5b50565b60805160601c60a05160c05160601c60e0516101005160c01c6101205160e01c610140516113e4620003e060003960006107a1015260006106550152600061063201526000610611015260006105d50152600081816102b401526103b10152600081816102f1015261034501526113e46000f3fe6080604052600436106100a75760003560e01c80635d3aabf9116100645780635d3aabf9146101895780635f1b0fd8146101b45780636e04ff0d146101df5780636f9d9c841461021d578063e55ae4e814610248578063fd6673f514610285576100a7565b806309bc33a7146100ac578063115cbaf5146100d75780631fe543e3146101025780632cfcc5391461012b5780634585e33b14610135578063473f1ddc1461015e575b600080fd5b3480156100b857600080fd5b506100c16102b0565b6040516100ce9190610fea565b60405180910390f35b3480156100e357600080fd5b506100ec6102d8565b6040516100f99190610fcf565b60405180910390f35b34801561010e57600080fd5b5061012960048036038101906101249190610dc3565b6102ef565b005b6101336103af565b005b34801561014157600080fd5b5061015c60048036038101906101579190610cd3565b61051e565b005b34801561016a57600080fd5b5061017361071d565b6040516101809190610f08565b60405180910390f35b34801561019557600080fd5b5061019e610747565b6040516101ab9190610fea565b60405180910390f35b3480156101c057600080fd5b506101c9610751565b6040516101d69190610fea565b60405180910390f35b3480156101eb57600080fd5b5061020660048036038101906102019190610d20565b61075e565b604051610214929190610f4c565b60405180910390f35b34801561022957600080fd5b5061023261080b565b60405161023f9190610fea565b60405180910390f35b34801561025457600080fd5b5061026f600480360381019061026a9190610d69565b61081a565b60405161027c9190610f08565b60405180910390f35b34801561029157600080fd5b5061029a610861565b6040516102a79190610fea565b60405180910390f35b60007f0000000000000000000000000000000000000000000000000000000000000000905090565b6000600160149054906101000a900460ff16905090565b7f000000000000000000000000000000000000000000000000000000000000000073ffffffffffffffffffffffffffffffffffffffff163373ffffffffffffffffffffffffffffffffffffffff16146103a157337f00000000000000000000000000000000000000000000000000000000000000006040517f1cf993f4000000000000000000000000000000000000000000000000000000008152600401610398929190610f23565b60405180910390fd5b6103ab828261086d565b5050565b7f0000000000000000000000000000000000000000000000000000000000000000341115610409576040517f2d99e72d00000000000000000000000000000000000000000000000000000000815260040160405180910390fd5b6000600181111561041d5761041c6112c4565b5b600160149054906101000a900460ff16600181111561043f5761043e6112c4565b5b14610476576040517fd6e19a8d00000000000000000000000000000000000000000000000000000000815260040160405180910390fd5b6000339080600181540180825580915050600190039060005260206000200160009091909190916101000a81548173ffffffffffffffffffffffffffffffffffffffff021916908373ffffffffffffffffffffffffffffffffffffffff1602179055503373ffffffffffffffffffffffffffffffffffffffff167f0805e1d667bddb8a95f0f09880cf94f403fb596ce79928d9f29b74203ba284d460405160405180910390a2565b60006105386040518060200160405280600081525061075e565b509050806105a75747600080549050600160149054906101000a900460ff166001811115610569576105686112c4565b5b6040517f3a8d608600000000000000000000000000000000000000000000000000000000815260040161059e93929190611005565b60405180910390fd5b60018060146101000a81548160ff021916908360018111156105cc576105cb6112c4565b5b021790555060007f000000000000000000000000000000000000000000000000000000000000000073ffffffffffffffffffffffffffffffffffffffff16635d3b1d307f00000000000000000000000000000000000000000000000000000000000000007f000000000000000000000000000000000000000000000000000000000000000060037f000000000000000000000000000000000000000000000000000000000000000060016040518663ffffffff1660e01b8152600401610696959493929190610f7c565b602060405180830381600087803b1580156106b057600080fd5b505af11580156106c4573d6000803e3d6000fd5b505050506040513d601f19601f820116820180604052508101906106e89190610d96565b9050807fcd6e45c8998311cab7e9d4385596cac867e20a0587194b954fa3a731c93ce78b60405160405180910390a250505050565b6000600160009054906101000a900473ffffffffffffffffffffffffffffffffffffffff16905090565b6000600254905090565b6000600361ffff16905090565b600060606000600160149054906101000a900460ff166001811115610786576107856112c4565b5b6000600181111561079a576107996112c4565b5b14905060007f0000000000000000000000000000000000000000000000000000000000000000600254426107ce91906110e5565b119050600080600080549050119050600080471190508380156107ee5750825b80156107f75750815b80156108005750805b955050505050915091565b6000600163ffffffff16905090565b600080828154811061082f5761082e6112f3565b5b9060005260206000200160009054906101000a900473ffffffffffffffffffffffffffffffffffffffff169050919050565b60008080549050905090565b6000808054905082600081518110610888576108876112f3565b5b602002602001015161089a9190611235565b905060008082815481106108b1576108b06112f3565b5b9060005260206000200160009054906101000a900473ffffffffffffffffffffffffffffffffffffffff16905080600160006101000a81548173ffffffffffffffffffffffffffffffffffffffff021916908373ffffffffffffffffffffffffffffffffffffffff1602179055506000600160146101000a81548160ff02191690836001811115610945576109446112c4565b5b0217905550600067ffffffffffffffff81111561096557610964611322565b5b6040519080825280602002602001820160405280156109935781602001602082028036833780820191505090505b50600090805190602001906109a9929190610a9e565b504260028190555060008173ffffffffffffffffffffffffffffffffffffffff16476040516109d790610ef3565b60006040518083038185875af1925050503d8060008114610a14576040519150601f19603f3d011682016040523d82523d6000602084013e610a19565b606091505b5050905080610a54576040517fa1d04b3900000000000000000000000000000000000000000000000000000000815260040160405180910390fd5b8173ffffffffffffffffffffffffffffffffffffffff167f5b690ec4a06fe979403046eaeea5b3ce38524683c3001f662c8b5a829632f7df60405160405180910390a25050505050565b828054828255906000526020600020908101928215610b17579160200282015b82811115610b165782518260006101000a81548173ffffffffffffffffffffffffffffffffffffffff021916908373ffffffffffffffffffffffffffffffffffffffff16021790555091602001919060010190610abe565b5b509050610b249190610b28565b5090565b5b80821115610b41576000816000905550600101610b29565b5090565b6000610b58610b5384611061565b61103c565b90508083825260208201905082856020860282011115610b7b57610b7a61135b565b5b60005b85811015610bab5781610b918882610ca9565b845260208401935060208301925050600181019050610b7e565b5050509392505050565b6000610bc8610bc38461108d565b61103c565b905082815260208101848484011115610be457610be3611360565b5b610bef8482856111c2565b509392505050565b600082601f830112610c0c57610c0b611356565b5b8135610c1c848260208601610b45565b91505092915050565b60008083601f840112610c3b57610c3a611356565b5b8235905067ffffffffffffffff811115610c5857610c57611351565b5b602083019150836001820283011115610c7457610c7361135b565b5b9250929050565b600082601f830112610c9057610c8f611356565b5b8135610ca0848260208601610bb5565b91505092915050565b600081359050610cb881611397565b92915050565b600081519050610ccd81611397565b92915050565b60008060208385031215610cea57610ce961136a565b5b600083013567ffffffffffffffff811115610d0857610d07611365565b5b610d1485828601610c25565b92509250509250929050565b600060208284031215610d3657610d3561136a565b5b600082013567ffffffffffffffff811115610d5457610d53611365565b5b610d6084828501610c7b565b91505092915050565b600060208284031215610d7f57610d7e61136a565b5b6000610d8d84828501610ca9565b91505092915050565b600060208284031215610dac57610dab61136a565b5b6000610dba84828501610cbe565b91505092915050565b60008060408385031215610dda57610dd961136a565b5b6000610de885828601610ca9565b925050602083013567ffffffffffffffff811115610e0957610e08611365565b5b610e1585828601610bf7565b9150509250929050565b610e2881611119565b82525050565b610e378161112b565b82525050565b610e4681611137565b82525050565b6000610e57826110be565b610e6181856110c9565b9350610e718185602086016111d1565b610e7a8161136f565b840191505092915050565b610e8e816111b0565b82525050565b6000610ea16000836110da565b9150610eac82611380565b600082019050919050565b610ec081611154565b82525050565b610ecf81611182565b82525050565b610ede8161118c565b82525050565b610eed8161119c565b82525050565b6000610efe82610e94565b9150819050919050565b6000602082019050610f1d6000830184610e1f565b92915050565b6000604082019050610f386000830185610e1f565b610f456020830184610e1f565b9392505050565b6000604082019050610f616000830185610e2e565b8181036020830152610f738184610e4c565b90509392505050565b600060a082019050610f916000830188610e3d565b610f9e6020830187610ee4565b610fab6040830186610eb7565b610fb86060830185610ed5565b610fc56080830184610ed5565b9695505050505050565b6000602082019050610fe46000830184610e85565b92915050565b6000602082019050610fff6000830184610ec6565b92915050565b600060608201905061101a6000830186610ec6565b6110276020830185610ec6565b6110346040830184610ec6565b949350505050565b6000611046611057565b90506110528282611204565b919050565b6000604051905090565b600067ffffffffffffffff82111561107c5761107b611322565b5b602082029050602081019050919050565b600067ffffffffffffffff8211156110a8576110a7611322565b5b6110b18261136f565b9050602081019050919050565b600081519050919050565b600082825260208201905092915050565b600081905092915050565b60006110f082611182565b91506110fb83611182565b92508282101561110e5761110d611266565b5b828203905092915050565b600061112482611162565b9050919050565b60008115159050919050565b6000819050919050565b600081905061114f82611383565b919050565b600061ffff82169050919050565b600073ffffffffffffffffffffffffffffffffffffffff82169050919050565b6000819050919050565b600063ffffffff82169050919050565b600067ffffffffffffffff82169050919050565b60006111bb82611141565b9050919050565b82818337600083830152505050565b60005b838110156111ef5780820151818401526020810190506111d4565b838111156111fe576000848401525b50505050565b61120d8261136f565b810181811067ffffffffffffffff8211171561122c5761122b611322565b5b80604052505050565b600061124082611182565b915061124b83611182565b92508261125b5761125a611295565b5b828206905092915050565b7f4e487b7100000000000000000000000000000000000000000000000000000000600052601160045260246000fd5b7f4e487b7100000000000000000000000000000000000000000000000000000000600052601260045260246000fd5b7f4e487b7100000000000000000000000000000000000000000000000000000000600052602160045260246000fd5b7f4e487b7100000000000000000000000000000000000000000000000000000000600052603260045260246000fd5b7f4e487b7100000000000000000000000000000000000000000000000000000000600052604160045260246000fd5b600080fd5b600080fd5b600080fd5b600080fd5b600080fd5b600080fd5b6000601f19601f8301169050919050565b50565b60028110611394576113936112c4565b5b50565b6113a081611182565b81146113ab57600080fd5b5056fea2646970667358221220b4c219eba821b8462e6a9216e33cf20be17bc034030934fc2559a9749781dc3364736f6c63430008070033",
  "linkReferences": {},
  "deployedLinkReferences": {}
}